{
  "_format": "hh3-artifact-1",
  "contractName": "MyToken",
  "sourceName": "contracts/MyToken.sol",
  "abi": [
    {
      "inputs": [],
      "stateMutability": "nonpayable",
      "type": "constructor"
    },
    {
      "inputs": [
        {
          "internalType": "address",
          "name": "_owner",
          "type": "address"
        }
      ],
      "name": "balanceOf",
      "outputs": [
        {
          "internalType": "uint256",
          "name": "",
          "type": "uint256"
        }
      ],
      "stateMutability": "view",
      "type": "function"
    },
    {
      "inputs": [
        {
          "internalType": "address",
          "name": "",
          "type": "address"
        }
      ],
      "name": "balances",
      "outputs": [
        {
          "internalType": "uint256",
          "name": "",
          "type": "uint256"
        }
      ],
      "stateMutability": "view",
      "type": "function"
    },
    {
      "inputs": [],
      "name": "name",
      "outputs": [
        {
          "internalType": "string",
          "name": "",
          "type": "string"
        }
      ],
      "stateMutability": "view",
      "type": "function"
    },
    {
      "inputs": [],
      "name": "symbol",
      "outputs": [
        {
          "internalType": "string",
          "name": "",
          "type": "string"
        }
      ],
      "stateMutability": "view",
      "type": "function"
    },
    {
      "inputs": [],
      "name": "totalSupply",
      "outputs": [
        {
          "internalType": "uint256",
          "name": "",
          "type": "uint256"
        }
      ],
      "stateMutability": "view",
      "type": "function"
    },
    {
      "inputs": [
        {
          "internalType": "address",
          "name": "_to",
          "type": "address"
        },
        {
          "internalType": "uint256",
          "name": "_value",
          "type": "uint256"
        }
      ],
      "name": "transfer",
      "outputs": [
        {
          "internalType": "bool",
          "name": "",
          "type": "bool"
        }
      ],
      "stateMutability": "nonpayable",
      "type": "function"
    }
  ],
  "bytecode": "0x60c0604052600460809081526311dbdb1960e21b60a0525f906100229082610113565b5060408051808201909152600381526211d31160ea1b602082015260019061004a9082610113565b50683635c9adc5dea00000600255348015610063575f5ffd5b50600254335f908152600360205260409020556101cd565b634e487b7160e01b5f52604160045260245ffd5b600181811c908216806100a357607f821691505b6020821081036100c157634e487b7160e01b5f52602260045260245ffd5b50919050565b601f82111561010e57805f5260205f20601f840160051c810160208510156100ec5750805b601f840160051c820191505b8181101561010b575f81556001016100f8565b50505b505050565b81516001600160401b0381111561012c5761012c61007b565b6101408161013a845461008f565b846100c7565b6020601f821160018114610172575f831561015b5750848201515b5f19600385901b1c1916600184901b17845561010b565b5f84815260208120601f198516915b828110156101a15787850151825560209485019460019092019101610181565b50848210156101be57868401515f19600387901b60f8161c191681555b50505050600190811b01905550565b61039f806101da5f395ff3fe608060405234801561000f575f5ffd5b5060043610610060575f3560e01c806306fdde031461006457806318160ddd1461008257806327e235e31461009957806370a08231146100b857806395d89b41146100e0578063a9059cbb146100e8575b5f5ffd5b61006c61010b565b604051610079919061025f565b60405180910390f35b61008b60025481565b604051908152602001610079565b61008b6100a73660046102af565b60036020525f908152604090205481565b61008b6100c63660046102af565b6001600160a01b03165f9081526003602052604090205490565b61006c610196565b6100fb6100f63660046102cf565b6101a3565b6040519015158152602001610079565b5f8054610117906102f7565b80601f0160208091040260200160405190810160405280929190818152602001828054610143906102f7565b801561018e5780601f106101655761010080835404028352916020019161018e565b820191905f5260205f20905b81548152906001019060200180831161017157829003601f168201915b505050505081565b60018054610117906102f7565b335f908152600360205260408120548211156102055760405162461bcd60e51b815260206004820152601860248201527f596f7572206d6f6e6579206973206e6f7420656e6f7567680000000000000000604482015260640160405180910390fd5b335f9081526003602052604081208054849290610223908490610343565b90915550506001600160a01b0383165f908152600360205260408120805484929061024f908490610356565b9091555060019150505b92915050565b602081525f82518060208401528060208501604085015e5f604082850101526040601f19601f83011684010191505092915050565b80356001600160a01b03811681146102aa575f5ffd5b919050565b5f602082840312156102bf575f5ffd5b6102c882610294565b9392505050565b5f5f604083850312156102e0575f5ffd5b6102e983610294565b946020939093013593505050565b600181811c9082168061030b57607f821691505b60208210810361032957634e487b7160e01b5f52602260045260245ffd5b50919050565b634e487b7160e01b5f52601160045260245ffd5b818103818111156102595761025961032f565b808201808211156102595761025961032f56fea264697066735822122085e18858bfd75d3ef57639fe10899ad67418ca2a9a2db5149ad5aed25ce4063c64736f6c634300081c0033",
  "linkReferences": {},
  "deployedLinkReferences": {},
  "immutableReferences": {},
  "inputSourceName": "project/contracts/MyToken.sol",
  "buildInfoId": "solc-0_8_28-ed2bbd91589203275c7763c0d9ed390d46543f7b"
}